:020000040800F2
:1000000060080020C5010008CD010008CF010008EC
:10001000D1010008D3010008D5010008000000004C
:10002000000000000000000000000000D7010008F0
:10003000D901000800000000DB010008DD01000814
:10004000DF010008DF010008DF010008DF01000810
:10005000DF010008DF010008DF010008DF01000800
:10006000DF010008DF010008DF010008DF010008F0
:10007000DF010008DF010008DF010008DF010008E0
:10008000DF010008DF010008DF01000800000000B8
:10009000000000000000000000000000DF01000878
:1000A000DF010008DF010008DF010008DF010008B0
:1000B000DF010008DD080008DF010008DF0100089B
:1000C000DF010008DF010008DF010008DF01000890
:1000D000DF010008DF010008DF010008DF01000880
:1000E000DF010008DF010008DF0100080000000058
:1000F0000000000000000000000000000000000000
:1001000000000000000000000000000000000000EF
:1001100000000000000000002D090008710900081F
:1001200000F002F800F03FF80AA090E8000C8244CA
:100130008344AAF10107DA4501D100F034F8AFF2A7
:10014000090EBAE80F0013F0010F18BFFB1A43F0B5
:1001500001031847680C0000880C0000103A24BF07
:1001600078C878C1FAD8520724BF30C830C144BF1C
:1001700004680C607047000000230024002500265E
:10018000103A28BF78C1FBD8520728BF30C148BFFA
:100190000B607047642900F08380002070471FB512
:1001A0001FBD10B510BD00F038F91146FFF7F7FF7D
:1001B00000F0CEFD00F056F903B4FFF7F2FF03BCE8
:1001C00000F05EF90948804709480047FEE7FEE76E
:1001D000FEE7FEE7FEE7FEE7FEE7FEE7FEE7FEE7F7
:1001E00004480549054A064B704700007908000895
:1001F0002101000860020020600800206004002047
:10020000600400200FB41CB50C0007AA009001D0B8
:100210002044401E074B7B4469460190069800F03D
:10022000DCF8002C03D06946002000F0E9F81CBC83
:100230005DF814FBF10100002DE9F0410E46044683
:10024000002020622046E168884730B3252805D089
:10025000D4E901219047206A401CF2E7E16820467A
:1002600000278847050018D0A5F14100192802D8B9
:1002700020354FF400673246294620462760FFF7B5
:1002800089FF40B1012804D0F61D26F00706083684
:10029000D8E7361DD6E72846DAE7206ABDE8F081C0
:1002A0002DE9F0410646002410687529314616A54F
:1002B00010D0AFF30080002802DA404213A507E017
:1002C00031688A0701D512A502E0490704D511A5B6
:1002D000012401E0AFF3008000210A2206F1240787
:1002E00009E0B0FBF2FCB0FBF2F302FB1C00303083
:1002F00078541846491C0028F3D123462A46304634
:10030000BDE8F04100F00BB8000000002D00000037
:100310002B000000200000007047704770472DE957
:10032000F0470D4699469246044600F124080168BC
:10033000880604D5E06921F01001216000E0012069
:10034000A84201DD471B00E00027A1697A1902EBF2
:100350000900081AA0612078C00602D42046AFF335
:100360000080002608E0D4E901211AF80600904731
:10037000206A401C761C20624E45F4DB2078C006C3
:100380000AD52046AFF3008006E0D4E901213020F1
:100390009047206A401C2062381EA7F10107F4DC58
:1003A00007E0D4E9012118F805009047206A401CB5
:1003B0002062281EA5F10105F3DC2046AFF3008082
:1003C0002078000602D50220BDE8F0870120FBE777
:1003D00001694A1C02610878704700B58FB0CDE909
:1003E00001310021059105497944CDE903101146F9
:1003F0006846FFF721FF0FB000BD0000E5FFFFFFDB
:100400000A6802F8010B0A607047D1E900239A429A
:1004100002D2531C0B6010707047754600F02CF828
:10042000AE4605006946534620F00700854618B0E1
:1004300020B5FFF7D5FEBDE820404FF000064FF095
:1004400000074FF000084FF0000B21F00701AC4609
:10045000ACE8C009ACE8C009ACE8C009ACE8C00928
:100460008D46704710B50446AFF300802046BDE8C6
:100470001040FFF7A1BE00000048704700020020B6
:1004800001491820ABBEFEE72600020070472DE9A7
:10049000F04102460025002600200023002400270A
:1004A00091F803C00CF00F0591F803C00CF0100C8C
:1004B000BCF1000F03D091F802C04CEA050591F899
:1004C00000C0BCF1000F31D0146800202BE04FF0C9
:1004D000010C0CFA00F3B1F800C00CEA03069E42CE
:1004E00020D183004FF00F0C0CFA03F7BC4305FA40
:1004F00003FC4CEA040491F803C0BCF1280F06D1B8
:100500004FF0010C0CFA00FCC2F814C00AE091F89C
:1005100003C0BCF1480F05D14FF0010C0CFA00FCF0
:10052000C2F810C0401C0828D1D31460B1F800C034
:10053000BCF1FF0F34DD546800202EE000F1080C00
:100540004FF0010808FA0CF3B1F800C00CEA0306FA
:100550009E4221D183004FF00F0C0CFA03F7BC43ED
:1005600005FA03FC4CEA040491F803C0BCF1280F1F
:1005700005D100F1080C08FA0CF8C2F8148091F8C3
:1005800003C0BCF1480F07D100F1080C4FF001087F
:1005900008FA0CF8C2F81080401C0828CED354602A
:1005A000BDE8F081F0B50A460023002400210025B3
:1005B00000F00046B6F1004F02D11D4EF16901E096
:1005C0001B4E7168C0F3034583B200F44016B6F5C4
:1005D000401F08D121F07061154E766826F07066D4
:1005E000134F7E6012E000F48016B6F5801F06D12E
:1005F000032606FA05F4A14341F0706106E0460DBA
:10060000360103FA06F6B14341F0706122B1460D9E
:10061000360103FA06F6314300F00046B6F1004F0A
:1006200002D1034EF16101E0014E7160F0BD0000A6
:100630000000014070B5002100230F22C47804B3EC
:10064000154C246804F4E064C4F5E064210AC1F1A7
:100650000403CA40447804FA03F184781440214327
:1006600009010E4C0678A155047804F01F050124F9
:10067000AC4005786D11AD0005F1E025C5F80041ED
:1006800009E0047804F01F050124AC40044D06780D
:10069000761145F8264070BD0CED00E000E400E066
:1006A00080E100E029B1064AD2690243044BDA61D5
:1006B00004E0034AD2698243014BDA6170470000CB
:1006C0000010024029B1064A92690243044B9A6124
:1006D00004E0034A92698243014B9A61704700002B
:1006E0000010024070B500210023002400220025E4
:1006F0002C4E766806F00C0121B1042905D008299A
:1007000021D105E0284E066020E0274E06601DE05E
:10071000244E766806F47013224E766806F4803410
:10072000022606EB93431CB9204E5E43066009E0A7
:100730001C4EF66A06F00F06751C1B4EB6FBF5F64E
:100740005E43066002E0184E066000BF00BF154E13
:10075000766806F0F0010909154E725C0668D6400D
:100760004660104E766806F4E061090A104E725C2D
:100770004668D64086600B4E766806F46051C90A1A
:100780000B4E725C4668D640C660064E766806F42C
:100790004041890B074E725CC668B6FBF2F60661F3
:1007A00070BD00000010024000127A0000093D00F8
:1007B000080000201800002010B500F001F810BD5E
:1007C0000CB50020019000902A48006840F4803069
:1007D0002849086000BF2748006800F400300090F6
:1007E0000198401C0190009818B90198B0F5A06FCD
:1007F000F1D12048006800F4003010B101200090D1
:1008000001E0002000900098012831D1194840688B
:100810001849486008464068486008464068486093
:100820000846406820F47C1048600846406840F460
:10083000981048600846006840F08070086000BF6B
:100840000C48006800F000700028F9D009484068A2
:1008500020F00300074948600846406840F0020065
:10086000486000BF0348406800F00C000828F9D138
:100870000CBD00000010024010B51448006840F0A4
:1008800001001249086008464068114908400F49B4
:100890004860084600680F4908400C49086008464F
:1008A000006820F4802008600846406820F4FE00BC
:1008B00048604FF41F0088600020C862FFF77CFF8B
:1008C0004FF000600449086010BD000000100240B5
:1008D0000000FFF8FFFFF6FE08ED00E010B5012173
:1008E0000A4800F09AF880B10121084800F062F847
:1008F00000F0CAF90446234605A240210A48FFF742
:1009000081FC094800F038FA00BF10BD0004004027
:10091000456E636F64657220706F736974696F6E82
:100920003A202564000000001C0000200C48008ACA
:1009300020F001000A4908820A4801680068401C4A
:10094000084A1060084830F811000849086010464D
:100950000068D22802D100201146086070470000CC
:1009600000100040000000205C00002008740040DF
:100970000C48008820F001000A4908800A480168F4
:100980000068401C084A1060084830F81100084907
:10099000086010460068D22802D100201146086085
:1009A0007047000010140040000000205C00002090
:1009B00014740040CA430282704721B1028842F099
:1009C0000102028004E002884FF6FE731A400280A2
:1009D0007047F0B50C4615461E4600210022002344
:1009E0000189028B038C4FF6F877394021434FF68B
:1009F000FC473A4040F201173A434FF6DD773B405F
:100A00004FF6FF7707EA06172F433B430181028326
:100A10000384F0BD0146888C704730B50246002043
:100A200000230024158A05EA0103958905EA0104DB
:100A300013B10CB1012000E0002030BD1AB1838950
:100A40000B43838102E083898B43838170470000DD
:100A5000002202881D4B98420ED01D4B98420BD0AD
:100A6000B0F1804F08D01B4B984205D01A4B9842EA
:100A700002D01A4B984204D14FF68F731A404B881C
:100A80001A43174B984207D0164B984204D04FF6A2
:100A9000FF431A40CB881A4302808B8883850B88DA
:100AA00003850A4B98420BD0094B984208D00E4B55
:100AB000984205D00D4B984202D00D4B984201D17F
:100AC0000B7A03860123838270470000002C0140CB
:100AD000003401400004004000080040000C0040C9
:100AE000001000400014004000400140004401405C
:100AF000004801404FF6FF71818000210180C180D4
:100B000041800172704721B1828942F40052828192
:100B100004E082894DF6FF731A408281704700001D
:100B20002DE9F04786B005460E460024A24600BFD8
:100B3000A1460027B08900B100BF2F462C8A4CF691
:100B4000FF700440F08804432C82AC894EF6F31009
:100B50000440B08831890843718908430443AC815B
:100B6000AC8A4FF6FF400440B0890443AC8201A830
:100B7000FFF7B8FD1F48874202D1DDF810A001E061
:100B8000DDF80CA0A88900F4004040B10AEBCA00CF
:100B900000EB0A1031684900B0FBF1F807E00AEBFE
:100BA000CA0000EB0A1031688900B0FBF1F864203C
:100BB000B8FBF0F004012009642101FB1089A88929
:100BC00000F4004040B1322000EBC900B0FBF1F06E
:100BD00000F00700044308E0322000EB0910642114
:100BE000B0FBF1F000F00F0004432C8106B0BDE82B
:100BF000F08700000038014038B505460C46012258
:100C000011460848FFF71AFF8DF8004000208DF8C4
:100C1000010001208DF802008DF803006846FFF7FF
:100C200009FD38BD000400401FB501210520FFF774
:100C300049FD48208DF80F000320ADF80C0003A9F2
:100C40001048FFF724FC01210846FFF72BFD6846FA
:100C5000FFF750FF0020ADF800001420ADF80400AD
:100C60001020ADF8020069468006FFF7F1FE002370
:100C70001A4601218807FFF7ACFE01218807FFF71C
:100C80009CFE1FBD0008014010B54FF08040FFF7EB
:100C9000C1FEC0B210BDFEB507460C4615461E4645
:100CA00001213846FFF7FEFCADF80050ADF80460B6
:100CB0000020ADF8020069462046FFF7C9FE012179
:100CC0002046FFF77AFEFEBD00B585B0012144F253
:100CD0000D00FFF7F7FC01211A48FFF763FC4FF402
:100CE0008060ADF8100004208DF8130004A91648A8
:100CF000FFF7CDFB4FF40070ADF8100003208DF826
:100D0000120018208DF8130004A90F48FFF7BFFB4D
:100D10004FF4165000900020ADF80400ADF8060026
:100D2000ADF80800ADF80C000C20ADF80A006946DB
:100D30000648FFF7F5FE01210448FFF7E4FE05B081
:100D400000BD0000000230000008014000380140F2
:100D5000FFF76AFFFFF7B8FF642349F640420549F1
:100D60000220FFF798FF1D210248FFF745FF00BF53
:100D7000FEE700000004004000B50246002304E046
:100D8000D05C00F00DF8581CC3B2D05C0028F7D13D
:100D90000D2000F005F80A2000F002F800BD000068
:100DA00000BF0549098801F040010029F9D0024936
:100DB000091D08807047000000380140DC0D000864
:100DC000000000201C0000005C010008F80D000875
:100DD0001C0000204408000078010008000000000A
:100DE0008813000000000000010203040102030454
:080DF0000607080902040608C9
:04000005080001C529
:00000001FF
