:020000040800F2
:1000000020070020C5010008CD010008CF0100082D
:10001000D1010008D3010008D5010008000000004C
:10002000000000000000000000000000D7010008F0
:10003000D901000800000000DB010008DD01000814
:10004000DF010008DF010008DF010008DF01000810
:10005000DF010008DF010008DF010008DF01000800
:10006000DF010008DF010008DF010008DF010008F0
:10007000DF010008DF010008DF010008DF010008E0
:10008000DF010008DF010008DF01000800000000B8
:10009000000000000000000000000000DF01000878
:1000A000DF010008DF010008DF010008DF010008B0
:1000B000DF0100084D09000875090008DF0100088C
:1000C000DF010008DF010008DF010008DF01000890
:1000D000DF010008150B0008DF010008DF01000840
:1000E000DF010008DF010008DF0100080000000058
:1000F0000000000000000000000000000000000000
:1001000000000000000000000000000000000000EF
:10011000000000000000000095090008D90900084F
:1001200000F002F800F03FF80AA090E8000C8244CA
:100130008344AAF10107DA4501D100F034F8AFF2A7
:10014000090EBAE80F0013F0010F18BFFB1A43F0B5
:1001500001031847B4110000D4110000103A24BF65
:1001600078C878C1FAD8520724BF30C830C144BF1C
:1001700004680C607047000000230024002500265E
:10018000103A28BF78C1FBD8520728BF30C148BFFA
:100190000B607047642900F08380002070471FB512
:1001A0001FBD10B510BD00F0B4F91146FFF7F7FF01
:1001B00000F066FF00F0D2F903B4FFF7F2FF03BCD2
:1001C00000F0DAF90948804709480047FEE7FEE7F2
:1001D000FEE7FEE7FEE7FEE7FEE7FEE7FEE7FEE7F7
:1001E00004480549054A064B70470000E908000825
:1001F000210100082001002020070020200300200A
:10020000200300200FB41CB50C0007AA009001D0F9
:100210002044401E074B7B4469460190069800F03D
:1002200058F9002C03D06946002000F065F91CBC89
:100230005DF814FBE90200002DE9F0410E4604468A
:10024000002020622046E168884730B3252805D089
:10025000D4E901219047206A401CF2E7E16820467A
:1002600000278847050018D0A5F14100192802D8B9
:1002700020354FF400673246294620462760FFF7B5
:1002800089FF40B1012804D0F61D26F00706083684
:10029000D8E7361DD6E72846DAE7206ABDE8F081C0
:1002A0002DE9F0410646002410687529314616A54F
:1002B00010D0AFF30080002802DA404213A507E017
:1002C00031688A0701D512A502E0490704D511A5B6
:1002D000012401E0AFF3008000210A2206F1240787
:1002E00009E0B0FBF2FCB0FBF2F302FB1C00303083
:1002F00078541846491C0028F3D123462A46304634
:10030000BDE8F04100F087B8000000002D000000BB
:100310002B0000002000000030B505460B462A46A1
:1003200013F8014B12F8010B08B1A042F8D01CB130
:10033000002802D06D1CF1E7284630BD10B5431CE3
:1003400002E010F8011B71B18107FAD14FF00132C0
:1003500002C88C1A8C4314EAC211F9D0C01A0A06DA
:1003600003D0C01E10BDC01A10BD0A0401D0801EEB
:1003700010BD0902FCD0401E10BD40EA010370B55B
:100380009B072ED14FF00136042A2AD308C810C982
:100390009D1B9D43121F15EAC61517D0D8B2E1B2B6
:1003A000401A50EA056110D198B2A1B2401A50EA41
:1003B00005410AD123F07F4024F07F41401A50EAE2
:1003C000052102D1180EA0EB146070BDA342DBD052
:1003D00018BA21BA884201D9012070BD4FF0FF3010
:1003E00070BD0AB9002070BD10F8013B11F8014B37
:1003F00063B1A3420AD1521E08D010F8013B11F894
:10040000014B1BB1A34201D1521EEDD1181B70BD8F
:100410007047704770472DE9F0470D469946924660
:10042000044600F124080168880604D5E06921F03B
:100430001001216000E00120A84201DD471B00E01F
:100440000027A1697A1902EB0900081AA061207837
:10045000C00602D42046AFF30080002608E0D4E9AD
:1004600001211AF806009047206A401C761C206281
:100470004E45F4DB2078C0060AD52046AFF3008055
:1004800006E0D4E9012130209047206A401C206218
:10049000381EA7F10107F4DC07E0D4E9012118F8C0
:1004A00005009047206A401C2062281EA5F1010526
:1004B000F3DC2046AFF300802078000602D502204E
:1004C000BDE8F0870120FBE701694A1C026108785A
:1004D000704700B58FB0CDE9013100210591054984
:1004E0007944CDE9031011466846FFF7A5FE0FB029
:1004F00000BD0000E5FFFFFF0A6802F8010B0A607B
:100500007047D1E900239A4202D2531C0B6010704D
:100510007047754600F02CF8AE4605006946534614
:1005200020F00700854618B020B5FFF759FEBDE85A
:1005300020404FF000064FF000074FF000084FF04A
:10054000000B21F00701AC46ACE8C009ACE8C009DB
:10055000ACE8C009ACE8C0098D46704710B5044648
:10056000AFF300802046BDE81040FFF725BE000035
:1005700000487047C000002001491820ABBEFEE7CC
:100580002600020070472DE9F041024600250026B2
:10059000002000230024002791F803C00CF00F0571
:1005A00091F803C00CF0100CBCF1000F03D091F8CF
:1005B00002C04CEA050591F800C0BCF1000F31D033
:1005C000146800202BE04FF0010C0CFA00F3B1F896
:1005D00000C00CEA03069E4220D183004FF00F0CAE
:1005E0000CFA03F7BC4305FA03FC4CEA040491F847
:1005F00003C0BCF1280F06D14FF0010C0CFA00FC2F
:10060000C2F814C00AE091F803C0BCF1480F05D14C
:100610004FF0010C0CFA00FCC2F810C0401C082876
:10062000D1D31460B1F800C0BCF1FF0F34DD5468C1
:1006300000202EE000F1080C4FF0010808FA0CF33E
:10064000B1F800C00CEA03069E4221D183004FF0AE
:100650000F0C0CFA03F7BC4305FA03FC4CEA040444
:1006600091F803C0BCF1280F05D100F1080C08FA7D
:100670000CF8C2F8148091F803C0BCF1480F07D100
:1006800000F1080C4FF0010808FA0CF8C2F81080CD
:10069000401C0828CED35460BDE8F081416170470A
:1006A0000161704770B5002100230F22C47804B3A4
:1006B000154C246804F4E064C4F5E064210AC1F137
:1006C0000403CA40447804FA03F1847814402143B7
:1006D00009010E4C0678A155047804F01F05012489
:1006E000AC4005786D11AD0005F1E025C5F800417D
:1006F00009E0047804F01F050124AC40044D06789D
:10070000761145F8264070BD0CED00E000E400E0F5
:1007100080E100E029B1064AD2690243044BDA6164
:1007200004E0034AD2698243014BDA61704700005A
:100730000010024029B1064A92690243044B9A61B3
:1007400004E0034A92698243014B9A6170470000BA
:100750000010024070B50021002300240022002573
:100760002C4E766806F00C0121B1042905D0082929
:1007700021D105E0284E066020E0274E06601DE0EE
:10078000244E766806F47013224E766806F48034A0
:10079000022606EB93431CB9204E5E43066009E037
:1007A0001C4EF66A06F00F06751C1B4EB6FBF5F6DE
:1007B0005E43066002E0184E066000BF00BF154EA3
:1007C000766806F0F0010909154E725C0668D6409D
:1007D0004660104E766806F4E061090A104E725CBD
:1007E0004668D64086600B4E766806F46051C90AAA
:1007F0000B4E725C4668D640C660064E766806F4BC
:100800004041890B074E725CC668B6FBF2F6066182
:1008100070BD00000010024000127A0000093D0087
:100820001B0000202B00002010B500F001F810BDC7
:100830000CB50020019000902A48006840F48030F8
:100840002849086000BF2748006800F40030009085
:100850000198401C0190009818B90198B0F5A06F5C
:10086000F1D12048006800F4003010B10120009060
:1008700001E0002000900098012831D1194840681B
:100880001849486008464068486008464068486023
:100890000846406820F47C1048600846406840F4F0
:1008A000981048600846006840F08070086000BFFB
:1008B0000C48006800F000700028F9D00948406832
:1008C00020F00300074948600846406840F00200F5
:1008D000486000BF0348406800F00C000828F9D1C8
:1008E0000CBD00000010024010B51448006840F034
:1008F00001001249086008464068114908400F4944
:100900004860084600680F4908400C4908600846DE
:10091000006820F4802008600846406820F4FE004B
:1009200048604FF41F0088600020C862FFF77CFF1A
:100930004FF000600449086010BD00000010024044
:100940000000FFF8FFFFF6FE08ED00E010B5012102
:10095000054800F072F830B10121034800F05EF85C
:1009600002A000F061FC10BD000400405445535447
:100970000000000010B50121054800F05EF828B124
:100980000121034800F04AF800F0FEFB10BD000012
:10099000000800400C48008A20F001000A49088243
:1009A0000A4801680068401C084A1060084830F88E
:1009B00011000849086010460068202802D1002074
:1009C0001146086070470000001000401000002031
:1009D00030000020087400400C48008820F001001E
:1009E0000A4908800A4801680068401C084A1060EB
:1009F000084830F8110008490860104600682028AF
:100A000002D1002011460860704700001014004019
:100A1000100000203000002014740040CA430282FD
:100A2000704721B1028842F00102028004E002888E
:100A30004FF6FE731A400280704730B50246002020
:100A400000230024158A05EA0103958905EA0104BB
:100A500013B10CB1012000E0002030BD1AB1838930
:100A60000B43838102E083898B43838170470000BD
:100A7000002202881D4B98420ED01D4B98420BD08D
:100A8000B0F1804F08D01B4B984205D01A4B9842CA
:100A900002D01A4B984204D14FF68F731A404B88FC
:100AA0001A43174B984207D0164B984204D04FF682
:100AB000FF431A40CB881A4302808B8883850B88BA
:100AC00003850A4B98420BD0094B984208D00E4B35
:100AD000984205D00D4B984202D00D4B984201D15F
:100AE0000B7A03860123838270470000002C0140AB
:100AF000003401400004004000080040000C0040A9
:100B0000001000400014004000400140004401403B
:100B10000048014010B51248008800F02000E8B1FC
:100B20000F4800F0C5F80F490870084600780E49D4
:100B30000E4A127888540D480078401C0B49087002
:100B4000084800780D2806D008460078502805DBB4
:100B500000F0C4F802E001200549087010BD000053
:100B6000003801401800002070000020190000200B
:100B70001A00002021B1828942F40052828104E0EF
:100B800082894DF6FF731A4082817047F0B50346A3
:100B9000002400260025002040F66A17B94200D143
:100BA00000BF1846C1F3421401F01F06012707FADF
:100BB00006F5012C01D10C3004E0022C01D11030DB
:100BC00000E014301AB107682F43076002E007689D
:100BD000AF430760F0BD00002DE9F04786B0054641
:100BE0000E460024A24600BFA1460027B08900B1EE
:100BF00000BF2F462C8A4CF6FF700440F088044357
:100C00002C82AC894EF6F3100440B0883189084339
:100C1000718908430443AC81AC8A4FF6FF4004401D
:100C2000B0890443AC8201A8FFF794FD1F488742B6
:100C300002D1DDF810A001E0DDF80CA0A88900F4D5
:100C4000004040B10AEBCA0000EB0A1031684900CD
:100C5000B0FBF1F807E00AEBCA0000EB0A103168BC
:100C60008900B0FBF1F86420B8FBF0F00401200922
:100C7000642101FB1089A88900F4004040B13220B2
:100C800000EBC900B0FBF1F000F00700044308E0FE
:100C9000322000EB09106421B0FBF1F000F00F00EE
:100CA00004432C8106B0BDE8F08700000038014005
:100CB00001468888C0F30800704700280DDB00BF9C
:100CC00000BF00F01F02012191404209920002F191
:100CD000E022C2F8001100BF00BF704700200A499F
:100CE000087009E000200949074A1278885406482C
:100CF0000078401C04490870034800785028F1DB54
:100D00000020014908707047190000207000002081
:100D100038B505460C46012211462846FFF79EFECF
:100D20008DF8004000208DF8010001208DF80200B0
:100D30008DF803006846FFF7B5FC38BD2DE9F0419A
:100D400005460020064604462846FFF7F7FA074600
:100D50000DE0285D302809DB285D392806DC285D98
:100D600006EB860100EB4100A0F13006641CBC429A
:100D7000EFDB16B90020BDE8F081B0B2FBE7024618
:100D8000002006E04FF47A6393FBF0F322F8103072
:100D9000401C8842F6DB7047FEB507460C461546F8
:100DA0001E4601213846FFF7B5FCADF80050ADF8FE
:100DB00004600020ADF8020069462046FFF758FEA7
:100DC00001212046FFF72DFEFEBD000038B50121B0
:100DD0001020FFF7AFFC00240FE0094830F81400A2
:100DE000ADF8000010208DF8030003208DF80200FC
:100DF00069460448FFF7C7FB641C042CEDDB38BDD3
:100E0000000000200010014008B501210420FFF778
:100E100091FC01211020FFF78DFC01214807FFF70D
:100E200079FC01211020FFF775FC01212020FFF73C
:100E300071FC1020ADF8000000208DF80300694619
:100E40002348FFF7A0FB2020ADF8000000208DF81C
:100E5000030020211F48FFF792FF00201E4908854C
:100E60001E48008888850846808940F001008881F6
:100E70000846008840F0010008803620FFF71DFF7B
:100E80000020174908801548008800F57A70091D70
:100E9000088013481C38008840F0010010491C39B4
:100EA00008800F482838008840F001000C49283994
:100EB00008803720FFF701FF0A48006840F0010072
:100EC000084908600846006840F48030086008BDA2
:100ED00000080140300000200010004014000020F5
:100EE000281400400074004000B587B0012144F28E
:100EF0000400FFF71FFC25208DF8180000208DF856
:100F000019008DF81A0001208DF81B0006A8FFF7C4
:100F1000C9FB4FF48060ADF8140004208DF8170071
:100F200005A91848FFF72FFB4FF40070ADF8140027
:100F300003208DF8160018208DF8170005A9114818
:100F4000FFF721FB4FF4165001900020ADF8080088
:100F5000ADF80A00ADF80C00ADF810000C20ADF8AB
:100F60000E0001A90848FFF737FE01210648FFF7E8
:100F700001FE012240F225510348FFF707FE07B0AA
:100F800000BD0000000801400038014010B50446D3
:100F9000042218A12046FFF7F0F908B9012010BD7E
:100FA000042216A12046FFF7E8F908B90220F6E767
:100FB000042214A12046FFF7E0F908B90320EEE768
:100FC000042212A12046FFF7D8F908B90420E6E769
:100FD000052210A12046FFF7D0F908B90720DEE767
:100FE00005220EA12046FFF7C8F908B90820D6E768
:100FF0000020D4E74F4E310D000000004F4E320D5F
:10100000000000004F4E330D000000004F4E340D25
:101010000000000044454D4F0D00000053544F5058
:101020000D00000070B50546002410E0094830F8B6
:101030001400A84205D0074931F8140000F00CF85C
:1010400004E0044931F8140000F010F8641C042C8A
:10105000ECDB70BD0000002010B5044621460248BC
:10106000FFF71CFB10BD00000010014010B5044646
:1010700021460248FFF714FB10BD0000001001409C
:1010800088B0FFF7C1FEFFF7A1FEFFF72DFF48E094
:1010900000F0FEF80446042C1CD007DC6CB1012CD7
:1010A0000CD0022C0ED0032C2DD10FE0072C15D024
:1010B000082C1FD0152C26D121E031E01020FFF79D
:1010C000B1FF2DE02020FFF7ADFF29E04020FFF722
:1010D000A9FF25E08020FFF7A5FF21E0642345F666
:1010E000C05210490420FFF757FE1E210D48FFF79C
:1010F0000FFE15E000210B48FFF793FC10E00AA05B
:1011000000F092F80CE0204600F0B0F823460CA264
:1011100020216846FFF776F8684600F085F800BFA2
:1011200000BFB5E700080040496E76616C69642035
:101130006672657175656E63792076616C756500A0
:10114000467265712E2073657420746F20256400CB
:1011500070B505460BA12846FFF7DEF880B2A9B2AC
:1011600088420DD12846FFF7E9FD0446002C03DD37
:1011700041F28830844201DD152070BD2046FCE735
:1011800000BFFAE74652510010B52448006820BB62
:101190002348006804280BDA21490A680968491CB9
:1011A0001F4B19601F4931F81200FFF73BFF34E075
:1011B0001B480068801E1A4908600A680968491EB1
:1011C000174B1960174931F81200FFF72BFF13482E
:1011D0000068401C114908601FE0114800680028A1
:1011E0000BDD0F490A680968491E0D4B19600D494E
:1011F00031F81200FFF716FF0FE008480068401EA4
:101200000649086006490A680968491C044B1960C8
:10121000044931F81200FFF705FF10BD0C00002053
:10122000080000200000002000B50246002304E072
:10123000D05C00F00DF8581CC3B2D05C0028F7D188
:101240000D2000F005F80A2000F002F800BD0000B3
:1012500000BF0549098801F040010029F9D0024981
:10126000091D0880704700000038014005490968E1
:10127000884205D00449888500F57A71034A1180B7
:101280007047000014000020001000402C140040A3
:1012900010B516480078012826D1002400201349F3
:1012A000087013A0FFF7C0FF1648FFF7BDFF1548F1
:1012B000FFF76CFE041E03D0FFF710FD204610BDA3
:1012C0001048FFF745FF0446322803DBFFF706FD11
:1012D0002046F4E7152C03D1FFF700FD2046EEE78A
:1012E000FFF7FCFC2046EAE70020E8E71A000020B0
:1012F00052656365697665642061206C696E653A44
:1013000000000000700000202813000800000020EA
:10131000300000005C010008581300083000002075
:10132000F006000078010008100020004000800056
:101330000000000000000000000000008813000012
:101340000000000000000001020304010203040683
:08135000070809020406080069
:04000005080001C529
:00000001FF
