:020000040800F2
:1000000088080020BD010008C5010008C7010008DC
:10001000C9010008CB010008CD0100080000000064
:10002000000000000000000000000000CF010008F8
:10003000D101000800000000D3010008D50100082C
:10004000D7010008D7010008D7010008D701000830
:10005000D7010008D7010008D7010008D701000820
:10006000D7010008D7010008D7010008D701000810
:10007000D7010008D7010008D7010008D701000800
:10008000D7010008D7010008D701000800000000D0
:10009000000000000000000000000000D701000880
:1000A000D7010008D7010008D7010008D7010008D0
:1000B000D7010008B1060008D7010008D7010008E1
:1000C000D7010008D7010008D7010008D7010008B0
:1000D000D701000889070008D7010008D7010008E8
:1000E000D7010008D7010008D70100080000000070
:1000F0000000000000000000000000000000000000
:1001000000000000000000000000000000000000EF
:100110000000000000000000D90600081D070008CC
:1001200000F002F800F03AF80AA090E8000C8244CF
:100130008344AAF10107DA4501D100F02FF8AFF2AC
:10014000090EBAE80F0013F0010F18BFFB1A43F0B5
:1001500001031847740A0000940A0000103A24BFF3
:1001600078C878C1FAD8520724BF30C830C144BF1C
:1001700004680C607047000000230024002500265E
:10018000103A28BF78C1FBD8520728BF30C148BFFA
:100190000B6070471FB51FBD10B510BD00F07CF897
:1001A0001146FFF7F7FF00F07BFC00F09AF803B46C
:1001B000FFF7F2FF03BC00F0A1F8000009488047F8
:1001C00009480047FEE7FEE7FEE7FEE7FEE7FEE739
:1001D000FEE7FEE7FEE7FEE704480549054A064B51
:1001E000704700004D060008210100088802002029
:1001F00088080020880400208804002040EA0103C9
:1002000070B59B072ED14FF00136042A2AD308C8B7
:1002100010C99D1B9D43121F15EAC61517D0D8B2F1
:10022000E1B2401A50EA056110D198B2A1B2401A69
:1002300050EA05410AD123F07F4024F07F41401A63
:1002400050EA052102D1180EA0EB146070BDA34244
:10025000DBD018BA21BA884201D9012070BD4FF015
:10026000FF3070BD0AB9002070BD10F8013B11F8D5
:10027000014B63B1A3420AD1521E08D010F8013BD2
:1002800011F8014B1BB1A34201D1521EEDD1181B35
:1002900070BD704770477047754600F02BF8AE464A
:1002A00005006946534620F00700854618B020B582
:1002B000FFF792FFBDE820404FF000064FF0000727
:1002C0004FF000084FF0000B21F00701AC46ACE8FE
:1002D000C009ACE8C009ACE8C009ACE8C0098D466B
:1002E000704710B50446AFF300802046BDE81040CB
:1002F000FFF75DBF00487047240200200149182025
:10030000ABBEFEE72600020070472DE9F041024631
:1003100000250026002000230024002791F803C0B8
:100320000CF00F0591F803C00CF0100CBCF1000F9D
:1003300003D091F802C04CEA050591F800C0BCF169
:10034000000F31D0146800202BE04FF0010C0CFAA4
:1003500000F3B1F800C00CEA03069E4220D18300EE
:100360004FF00F0C0CFA03F7BC4305FA03FC4CEA00
:10037000040491F803C0BCF1280F06D14FF0010C22
:100380000CFA00FCC2F814C00AE091F803C0BCF1FA
:10039000480F05D14FF0010C0CFA00FCC2F810C058
:1003A000401C0828D1D31460B1F800C0BCF1FF0F85
:1003B00034DD546800202EE000F1080C4FF00108F5
:1003C00008FA0CF3B1F800C00CEA03069E4221D1F2
:1003D00083004FF00F0C0CFA03F7BC4305FA03FC43
:1003E0004CEA040491F803C0BCF1280F05D100F1D8
:1003F000080C08FA0CF8C2F8148091F803C0BCF19C
:10040000480F07D100F1080C4FF0010808FA0CF86A
:10041000C2F81080401C0828CED35460BDE8F0819B
:10042000416170470161704770B5002100230F22C0
:10043000C47804B3154C246804F4E064C4F5E064A3
:10044000210AC1F10403CA40447804FA03F1847814
:100450001440214309010E4C0678A155047804F09C
:100460001F050124AC4005786D11AD0005F1E025B4
:10047000C5F8004109E0047804F01F050124AC40F0
:10048000044D0678761145F8264070BD0CED00E06D
:1004900000E400E080E100E029B1064A92690243ED
:1004A000044B9A6104E0034A92698243014B9A61CA
:1004B000704700000010024070B5002100230024A6
:1004C000002200252C4E766806F00C0121B104298B
:1004D00005D0082921D105E0284E066020E0274EEE
:1004E00006601DE0244E766806F47013224E76688E
:1004F00006F48034022606EB93431CB9204E5E437B
:10050000066009E01C4EF66A06F00F06751C1B4ECD
:10051000B6FBF5F65E43066002E0184E066000BFCB
:1005200000BF154E766806F0F0010909154E725CA1
:100530000668D6404660104E766806F4E061090A07
:10054000104E725C4668D64086600B4E766806F4A4
:100550006051C90A0B4E725C4668D640C660064EB2
:10056000766806F44041890B074E725CC668B6FB9C
:10057000F2F6066170BD00000010024000127A0021
:1005800000093D001B0000202B00002010B500F0EA
:1005900001F810BD0CB50020019000902A480068B9
:1005A00040F480302849086000BF2748006800F404
:1005B000003000900198401C0190009818B90198F3
:1005C000B0F5A06FF1D12048006800F4003010B100
:1005D0000120009001E0002000900098012831D116
:1005E000194840681849486008464068486008460D
:1005F000406848600846406820F47C10486008461F
:10060000406840F4981048600846006840F08070E8
:10061000086000BF0C48006800F000700028F9D0A6
:100620000948406820F003000749486008464068D0
:1006300040F00200486000BF0348406800F00C0032
:100640000828F9D10CBD00000010024010B5144874
:10065000006840F0010012490860084640681149EE
:1006600008400F494860084600680F4908400C4997
:1006700008600846006820F480200860084640684A
:1006800020F4FE0048604FF41F0088600020C8621C
:10069000FFF77CFF4FF000600449086010BD0000C8
:1006A000001002400000FFF8FFFFF6FE08ED00E03A
:1006B00010B50121054800F056F830B1012103487A
:1006C00000F04EF802A000F00EFA10BD0004004049
:1006D00054455354000000000C48008A20F00100EB
:1006E0000A4908820A4801680068401C084A1060EC
:1006F000084830F811000849086010460068D22800
:1007000002D1002011460860704700000010004030
:100710001000002030000020087400400C480088C1
:1007200020F001000A4908800A4801680068401C5E
:10073000084A1060084830F811000849086010465F
:100740000068D22802D100201146086070470000DE
:1007500010140040100000203000002014740040ED
:10076000CA430282704730B50246002000230024AD
:10077000158A05EA0103958905EA010413B10CB154
:10078000012000E0002030BD10B51248008800F0C4
:100790002000E8B10F4800F0C5F80F49087008467E
:1007A00000780E490E4A127888540D480078401C93
:1007B0000B490870084800780D2806D008460078D4
:1007C000502805DB00F0B4F802E00120054908706C
:1007D00010BD00000038014018000020D4010020A6
:1007E000190000201A00002021B1828942F4005231
:1007F000828104E082894DF6FF731A40828170473E
:10080000F0B50346002400260025002040F66A17B4
:10081000B94200D100BF1846C1F3421401F01F06CF
:10082000012707FA06F5012C01D10C3004E0022C57
:1008300001D1103000E014301AB107682F4307606F
:1008400002E00768AF430760F0BD00002DE9F04704
:1008500086B005460E460024A24600BFA1460027EA
:10086000B08900B100BF2F462C8A4CF6FF700440BF
:10087000F08804432C82AC894EF6F3100440B08813
:1008800031890843718908430443AC81AC8A4FF62F
:10089000FF400440B0890443AC8201A8FFF70CFE7E
:1008A0001F48874202D1DDF810A001E0DDF80CA05E
:1008B000A88900F4004040B10AEBCA0000EB0A101E
:1008C00031684900B0FBF1F807E00AEBCA0000EB21
:1008D0000A1031688900B0FBF1F86420B8FBF0F031
:1008E00004012009642101FB1089A88900F400405B
:1008F00040B1322000EBC900B0FBF1F000F007007E
:10090000044308E0322000EB09106421B0FBF1F051
:1009100000F00F0004432C8106B0BDE8F087000012
:100920000038014001468888C0F308007047000085
:1009300000200A49087009E000200949074A127896
:10094000885406480078401C044908700348007821
:100950005028F1DB00200149087070471900002081
:10096000D401002038B501211020FFF795FD0024A7
:100970000FE0094830F81400ADF8000010208DF8A1
:10098000030003208DF8020069460448FFF7BDFC10
:10099000641C042CEDDB38BD000000200010014079
:1009A00000B587B0012144F20400FFF775FD252052
:1009B0008DF8180000208DF819008DF81A0001201C
:1009C0008DF81B0006A8FFF72FFD4FF48060ADF8EF
:1009D000140004208DF8170005A91848FFF795FCAE
:1009E0004FF40070ADF8140003208DF816001820A5
:1009F0008DF8170005A91148FFF787FC4FF4165032
:100A000001900020ADF80800ADF80A00ADF80C0028
:100A1000ADF810000C20ADF80E0001A90848FFF752
:100A200015FF01210648FFF7DFFE012240F22551A4
:100A30000348FFF7E5FE07B000BD000000080140D5
:100A40000038014070B50546002410E0094830F830
:100A50001400A84205D0074931F8140000F00CF842
:100A600004E0044931F8140000F010F8641C042C70
:100A7000ECDB70BD0000002010B5044621460248A2
:100A8000FFF7CEFC10BD00000010014010B5044679
:100A900021460248FFF7C6FC10BD000000100140CF
:100AA000FFF760FFFFF77CFF1CE000F03DF8044615
:100AB000012C06D0022C08D0032C0AD0042C10D113
:100AC0000BE01020FFF7BEFF0BE02020FFF7BAFF7E
:100AD00007E04020FFF7B6FF03E08020FFF7B2FFFA
:100AE00000BF00BFE1E700B50246002304E0D05C90
:100AF00000F00CF8581CC3B2D05C0028F7D10D20D0
:100B000000F004F80A2000F001F800BD00BF05491C
:100B1000098801F040010029F9D00249091D088027
:100B2000704700000038014010B5184800780128CF
:100B300029D1002400201549087015A0FFF7D3FF24
:100B40001848FFF7D0FF042217A11648FFF756FBFD
:100B500000B90124042216A11248FFF74FFB00B987
:100B60000224042214A10F48FFF748FB00B9032414
:100B7000042213A10B48FFF741FB00B90424FFF73F
:100B8000D7FE204610BD0020FCE700001A00002020
:100B900052656365697665642061206C696E653AAB
:100BA00000000000D40100204F4E310D0000000075
:100BB0004F4E320D000000004F4E330D000000007C
:100BC0004F4E340D00000000E80B0008000000202C
:100BD000300000005C010008180C00083000002004
:100BE0005808000078010008100020004000800034
:100BF000000000000000000000000000881300005A
:100C000000000000000000010203040102030406CA
:080C10000708090204060800B0
:04000005080001BD31
:00000001FF
